:020000040800F2
:10000000880B0020A9010008FD150008AF140008A6
:1000100065150008251300081F26000800000000D1
:10002000000000000000000000000000ED1C0008BF
:100030002913000800000000B91B0008711D00080A
:10004000BF010008BF010008BF010008BF01000890
:10005000BF010008BF010008BF010008BF01000880
:10006000BF010008BF010008BF010008BF01000870
:10007000BF010008BF010008BF010008BF01000860
:10008000BF010008BF010008BF010008BF01000850
:10009000BF010008BF010008BF010008BF01000840
:1000A000BF010008BF010008BF010008BF01000830
:1000B00065200008BF010008C5200008BF01000836
:1000C000BF010008BF010008BF010008BF01000810
:1000D000BF010008E9230008BF01000871240008DF
:1000E000BF010008BF010008BF01000800F002F8CE
:1000F00000F04AF80AA090E8000C82448344AAF178
:100100000107DA4501D100F03FF8AFF2090EBAE875
:100110000F0013F0010F18BFFB1A43F0010318473B
:10012000683A0000883A0000103A24BF78C878C1C5
:10013000FAD8520724BF30C830C144BF04680C60ED
:10014000704700000023002400250026103A28BF35
:1001500078C1FBD8520728BF30C148BF0B60704739
:10016000662902F09287642900F0488000207047D9
:100170001FB500F085FB04000020002102F0D4FB35
:10018000E0601FBD10B510BD00F096FC1146FFF7F2
:10019000EFFF02F0F5FA00F0B4FC03B4FFF7F2FF52
:1001A00003BC02F094FA000008480047FEE7FEE7AF
:1001B000FEE7FEE7FEE7FEE7FEE7FEE7FEE7FEE717
:1001C00003480449044A054B70470000ED0000084D
:1001D00088050020880B0020880700208807002061
:1001E000704700000FB4044910B503AA029800F04C
:1001F00035FB10BC5DF814FB480000202DE9F041F0
:100200000646002410687529314616A510D0AFF3B4
:100210000080002802DA404213A507E031688A070F
:1002200001D512A502E0490704D511A5012401E07A
:10023000AFF3008000210A2206F1240709E0B0FB99
:10024000F2FCB0FBF2F302FB1C003030785418468D
:10025000491C0028F3D123462A463046BDE8F04128
:1002600000F093B8000000002D0000002B000000FB
:10027000200000002DE9F0474FF0000A89460446AF
:10028000C0F820A02046E1688847002876D02528BD
:1002900006D0D4E901219047206A401C2062F1E792
:1002A000E168204600258847C4F81CA006460027C0
:1002B000C4F818A02A2E09D0304602F001FA38B34B
:1002C00004EB8708303EC8F8186019E059F8041BA1
:1002D000204604EB87029161E1688847012F0646BA
:1002E00018D1E069002820DA25F020051DE0D8F8B3
:1002F000180000EB800006EB40003038C8F818000A
:100300002046E1688847064602F0DAF90028EED177
:10031000012F0AD02E2E08D12046E16888477F1C85
:100320000646022F45F02005C4DBA069002803DA49
:10033000404245F00105A061E80701D025F0100515
:10034000B6B1A6F14100192802D8203645F400655F
:100350004A463146204625604D46FFF701FF58B119
:10036000012806D0ED1D25F0070000F1080989E7F6
:1003700004E005F1040985E730468AE7206ABDE814
:10038000F08770477047704770472DE9F0470D467A
:1003900099469246044600F124080168880604D56F
:1003A000E06921F01001216000E00120A84201DD98
:1003B000471B00E00027A1697A1902EB0900081A1F
:1003C000A0612078C00602D42046AFF3008000264A
:1003D00008E0D4E901211AF806009047206A401C81
:1003E000761C20624E45F4DB2078C0060AD52046F4
:1003F000AFF3008006E0D4E9012130209047206A65
:10040000401C2062381EA7F10107F4DC07E0D4E9A4
:10041000012118F805009047206A401C2062281E20
:10042000A5F10105F3DC2046AFF30080207800063B
:1004300002D50220BDE8F0870120FBE770472DE9D7
:10044000FF4F0C461E464FF0FF378BB0D2E900013C
:10045000DDF860800A908A46C1F30A5505B93D4629
:10046000002108464FF00000BAF1000F00F44000F0
:1004700005DA00EB80004FF4400101EA50004FEA3A
:100480009059B9F1010F00DDB9460A9850EA4A00C7
:100490000ED044F61050A5F2FF3545432F14B8F1A5
:1004A000000F1ED07542291E1EDDC9F100021CE09E
:1004B000B8F1010F4FF0000001D0302103E0F2430A
:1004C00005E02154401CB042FBDB304600220021F5
:1004D00021540B99C1F80880C1E900200FB0BDE894
:1004E000F08FBD1B6D1CDEE74A4600DA694206A8A4
:1004F00000F068FA06AB93E8070003AB83E8070057
:1005000050460A9900F046FB8DE80700A0F5005020
:100510001F3800900398002D0ADD42F21F014A4661
:100520000844002303A90390684600F0AFFD09E0EA
:10053000A0F500504A461F38002303A903906846DF
:1005400000F0B9FD8DE807000004000C03D04FF067
:10055000FF30410800E01046B8F1000F03D0002240
:10056000009215461EE0751E05D400F08DF930325C
:1005700062556D1EF9D5B3460122084302D0002210
:100580007F1C04E02078302801D100227F1E002A41
:10059000099784D01DE0112D07DA00F075F930328B
:1005A00062556D1C50EA0102F5D1084302D0009853
:1005B000C8B10EE00021681E05E0235C625C635454
:1005C0002254401E491C8142F7DBAB46A81B401E4B
:1005D0000990002004F80B000B98099AC0F80880D5
:1005E000C0E9002B7AE711264FF0000857E72DE904
:1005F000F04F88460446D21D22F0070191B0D1E9A0
:100600000001CDE90A0102F047F802460B98C00F3D
:1006100001D02D2007E02068810701D52B2002E0C2
:10062000202101EAC000032A099001D0072A05DB36
:1006300003464146204600F085F90BE1207880060C
:1006400001D5E06900E00620B8F1650F814606D0CB
:10065000B8F1660F18D0B8F1670F70D131E0002003
:10066000B9F1110F009001DB112301E009F1010341
:100670000AAA01A90CA8FFF7E2FEDDE90C7000262A
:1006800009F10105834647E001204B4600904FF0F9
:1006900000470AAA01A90CA8FFF7D1FEDDE90DB0B9
:1006A0000C995D46002610B909F101000D18B9EB4F
:1006B000050003D4C0F1FF3609F10105A5EB0900DF
:1006C0002BE0B9F1010F01DA4FF001090020B9F177
:1006D000110F0090484601DD112300E003460AAAED
:1006E00001A90CA8FFF7ABFEDDE90C704D46002612
:1006F0008346207800070AD4AB4500DA5D4601A89E
:10070000012D04DD411911F8011C302907D04F4596
:1007100002DA17F1040F04DA012082460FE06D1EA1
:10072000EEE7002F02DCED1B3E4403E0781CA842FC
:1007300000DD7D1CB81B00F1010A4FF00047207856
:10074000000703D4AA4501DB4FF0FF3A0021B7F1BF
:10075000004F0DF143088DF8431024D002202B23C5
:10076000002F01DA7F422D230A21021EA0F1010091
:1007700000DC5FB197FBF1FC97FBF1F201FB1C7C05
:1007800017460CF1300C08F801CDEEE7A8F1010096
:1007900003702188090501D5452100E06521A0F1FC
:1007A000010800F8011C09980FA9A1EB0807FF1D1B
:1007B00000B10120411901EBEA70A1693844081A1F
:1007C000401EA0612078C00602D42046AFF300800E
:1007D000099828B1D4E901219047206A401C206281
:1007E0002078C00622D52046AFF300801EE0002E00
:1007F00004DBB34502DD01A8805D00E03020D4E9D0
:1008000001219047206A401C2062761CAAF1010059
:100810005FEA000A0AD100F033F8C0680168405C62
:10082000D4E901219047206A401C2062281EA5F1CE
:100830000105DCDC07E0D4E9012118F8010B904741
:10084000206A401C2062381EA7F10107F3DC204615
:10085000AFF30080032011B041E60000074B70B5F4
:100860000D467B4400F05BF80446284600F01CF976
:1008700010B14FF0FF3070BD204670BDFF1E00006C
:10088000004870474405002030B5B0F10A024FEA35
:10089000900E71F100034EEA817EB0EB0E0061EB29
:1008A00091014FEA101E4EEA017E10EB0E0041EB63
:1008B00011114FEA102E4EEA016E10EB0E0041EBC3
:1008C00011214FEA104E4EEA014E10EB0E0041EBA3
:1008D0001141401841F100014FEAD00040EA417057
:1008E0004FEAD10110EB80054FEA810444EA90748D
:1008F00044EB01046D1944EB0404521BA3414FF077
:10090000000348BF0A3200D530BD401C41F1000150
:1009100030BD000001694A1C02610878704700B5CB
:100920008FB0CDE901310021059105497944CDE928
:10093000031011466846FFF79DFC0FB000BD000094
:10094000E5FFFFFF2DE9F0411F460446032601683D
:10095000072A01F4006004DB08B116A505E016A51E
:1009600003E008B115A500E015A521F010002060F6
:10097000A069C01EA0610FB1401EA0612046AFF368
:1009800000804FB1D4E9012138469047206A401CCD
:100990002062C01C206206E0206AFAE7D4E9012147
:1009A00015F8010B9047761EF8D22046AFF3008071
:1009B000BDE8F0814E414E006E616E00494E46002A
:1009C000696E66002DE9F047814616468AB03548C3
:1009D00078440DC88DE80D0032487844801C03AC83
:1009E0000DC884E80D0041F69B300844372190FB88
:1009F000F1F290FBF1F5A5F1800501FB12041B3C1F
:100A000002D56442012000E00020DFF898A0804673
:100A10000027FA44AAF1BE0A0EE0E0070AD03246E7
:100A2000684607EB470101230AEB810100F043FB15
:100A30008DE8070064107F1C002CEED1194F7F4415
:100A4000AE3F19E0E80715D007EB04100DF1180AC6
:100A500090E80E008AE80E00C068F04201D19819B3
:100A600008903246012306A903A800F024FB03AB3B
:100A700083E807006D10641C002DE3D14FF00103E3
:100A800032466946B8F1000F03A802D000F0FEFA22
:100A900001E000F010FBC9E90001C9F808200AB024
:100AA000BDE8F0879C310000007B00F080007047BB
:100AB00000487047240500207546FFF7F9FFAE4651
:100AC00005006946534620F00700854618B020B55A
:100AD000FFF776FBBDE820404FF000064FF000071F
:100AE0004FF000084FF0000B21F00701AC46ACE8D6
:100AF000C009ACE8C009ACE8C009ACE8C0098D4643
:100B0000704710B50446AFF300802046BDE81040A2
:100B1000FFF743BB4FF0013C50F8042B51F8043B66
:100B20009A4221D1A2EB0C03934313EACC1317D1C1
:100B300050F8042B51F8043B9A4215D1A2EB0C0358
:100B4000934313EACC130BD150F8042B51F8043B18
:100B50009A4209D1A2EB0C03934313EACC13DBD0E6
:100B60004FF00000704700BFD01A01BAB1FA81F10E
:100B700001F0180122FA01F0CB40C1F12001DBB2F3
:100B8000C0B2C01A2CFA01F3D11A914311EAC31171
:100B9000E6D170475FEA400C08BF91F0000F4FEAC2
:100BA0008C234FEAC12243EA51514FEA1C5018BF2F
:100BB00000F5F0404FEA300018BF41F000415FEA15
:100BC0006C5C00F02980BCF1FF3F08BF40F0804022
:100BD0007047130C06BF12044FF0100C4FF0000CBE
:100BE000130E04BF12020CF1080C130F04BF120104
:100BF0000CF1040C930F04BF92000CF1020CD30F04
:100C000004BF52000CF1010C11464FF00002A0F19C
:100C10001F00A0EB0C00704711F0004F08BF704799
:100C200031F000413FF4D5AF0B0C06BF09044FF083
:100C3000100C4FF0000C0B0E04BF09020CF1080C55
:100C40000B0F04BF09010CF1040C8B0F04BF8900CA
:100C50000CF1020CCB0F04BF49000CF1010CCCF1DC
:100C60002003A0EB0C0022FA03F302FA0CF241EA93
:100C7000030100F10100704720F07F4C80EA03007F
:100C800023F07F47ACEB070303F57C5300F00040F3
:100C900003F1FF032DE980494FEA154B09B44FEAF0
:100CA000144325EA0B4E24EA03480FF2042606EB10
:100CB000132749083E785FEA320203FB0667C7F54F
:100CC000000707FB06F64FEA54374FEAD64606F10F
:100CD000020607FB066CCCF1005C4FEA1C472CEACD
:100CE000074C07FB06F40CFB06F504EB15464FEA30
:100CF000961634BF00204FF000404FEAD13706FB74
:100D000007FC4FEA1C4C0CFB0BF7D21B03FB0CF748
:100D100061EB07010CFB0EF7B0EB074072EB1742DB
:100D20000CFB08F734BFA2EB0742B2EB074261EBC2
:100D300017414FEA0C444FEA910706FB07FC4FEAC4
:100D40001C4C0CFB0BF7B0EBC74072EB573203FBAC
:100D50000CF734BFA2EBC742B2EBC74261EB57318D
:100D60000CFB0EF7B0EBC70072EB57720CFB08F7E9
:100D700034BFA2EBC702B2EBC70261EB5771039F0E
:100D80004FEA816141EA921104EBCC044FEAD1377A
:100D90004FEA826206FB07FC42EA90124FEA80604B
:100DA0004FEA1C4C0CFB0BF7D21B03FB0CF761EB5F
:100DB00007010CFB0EF7B0EB074072EB17420CFB80
:100DC00008F734BFA2EB0742B2EB074261EB1741D1
:100DD0004FEA8C554FEA910704EB9C2406FB07FC75
:100DE0004FEA1C4C0CFB0BF7B0EBC74072EB5732D1
:100DF00003FB0CF734BFA2EBC742B2EBC74261EB77
:100E000057310CFB0EF7B0EBC70072EB57720CFBBF
:100E100008F734BFA2EBC702B2EBC70261EB577110
:100E200015EB4C254FEA816141EA92114FEA82624B
:100E30004FEAD13742EA901206FB07FC44F1000466
:100E40004FEA80604FEA1C4C0CFB0BF7D21B03FBF4
:100E50000CF761EB07010CFB0EF7B0EB074072EBF0
:100E600017420CFB08F734BFA2EB0742B2EB074274
:100E700061EB174115EB1C154FEA813141EA9241B4
:100E80004FEA823242EA90424FEA80304FEA0C76D3
:100E900044F1000448EA03434EEA0B484FF0000EC9
:100EA000B2EB080C71EB030724BF624639464EEBE8
:100EB0000E0E4FF0000B0018524149414BEB0B0B4B
:100EC000B2EB080C71EB03077BF1000B24BF624609
:100ED00039464EEB0E0E4FF0000B001852414941BF
:100EE0004BEB0B0BB2EB080C71EB03077BF1000B28
:100EF00024BF624639464EEB0E0E51EA020718BF78
:100F000046F0010616EB0E7655F1000254F1000191
:100F100003D5BDE88901BDE80088BDE88901BDE8C9
:100F20000048B619524141EB0101A3F1010370479A
:100F300080807F7E7D7C7B7A797877767675747316
:100F4000727171706F6E6E6D6C6C6B6A6A696868D5
:100F5000676666656464636362616160605F5F5E6B
:100F60005E5D5D5C5C5B5B5A5A59595858575756E1
:100F70005655555554545353525252515150505046
:100F80004F4F4F4E4E4D4D4D4C4C4C4B4B4B4A4A98
:100F90004A494949484848474747474646464545DC
:100FA0004544444444434343434242424241414115
:100FB000002B9C4630D477002BD01CB54FEA370766
:100FC00003B44FF010004FF01001BAF1000F06D03B
:100FD000BCF1000FDCBF40F0080040F008014FF00A
:100FE00000000FBCBDE810400BF1010BBBF1010F7D
:100FF00008BF5FEA170722BF12F1010211F10101D8
:101000004FF0004143F1000300F0004043EA0000CC
:101010007047F9D35708D0E746EA064613F1400F68
:101020004FEA16461FDD13F1200FDFBF16430A46B5
:10103000002120335B42BED0C3F1200746EA0646BA
:1010400002FA07F74FEA164646EA0706C3F12007F9
:1010500022FA03F201FA07F721FA03F14FF0000335
:1010600042EA0702A7E746EA020646EA06464FEAD0
:10107000164646EA0106BCBF46EA0646360C4FF065
:1010800000034FF000024FF0000194E72DE9804C7F
:101090009A46934670B491E8380007C831EA400C8C
:1010A00048BF34EA430C03D5FFF7E6FDFFF780FFA6
:1010B000F0BCBDE8008C2DE9804C9A46934670B494
:1010C00091E8380007C810F0804F08BF13F0804F38
:1010D00003D100F005F8FFF76BFFF0BCBDE8008C12
:1010E00020F07F4780EA030023F07F4C07EB0C03DE
:1010F000A3F57C5300F00040A3F1FE0392F0000F33
:1011000000F0B38095F0000F00F077802DE90149E1
:101110004FEA11404FEA144621EA004800FB06FC62
:1011200024EA064708FB06F607FB08F800FB07F76A
:1011300018EB06484CEB164C4FEA124B18EB0748DD
:101140004FEA15464CEB174022EA0B4E0BFB06FC10
:1011500025EA06470EFB06F607FB0EFE0BFB07F71C
:101160001EEB064E4CEB164C4FF000061EEB074EE6
:101170004CEB174B18EB0B0840F1000018EB0E0B73
:1011800058EB000840F100008F1A4FF000013CBFFF
:10119000C943661B14BFB5EB040C00213CBFC94317
:1011A000F61B4FEA17444EEA8E0E27EA04454FEA33
:1011B0001C4704FB07622CEA074C05FB07F70CFBF6
:1011C00005F604FB0CFC16EB074642EB174216EB48
:1011D0000C4642EB1C421BEB060658EB0202414157
:1011E00046EA9E0601D5BDE80189B619524141EB98
:1011F0000101A3F10103BDE801894FEA14454FEA5B
:10120000114724EA054621EA074C05FB07F406FBD3
:1012100007F70CFB06F105FB0CFC11EB074144EB57
:1012200017444FEA124711EB0C4144EB1C4422EAED
:10123000074C05FB07F206FB07F70CFB06F605FB60
:101240000CFC16EB074642EB174216EB0C4642EB42
:101250001C456A1854F1000148BF7047B619524145
:1012600041EB0101A3F10103704795F0000F37D066
:101270004FEA11424FEA144721EA024624EA074C9A
:1012800002FB07F106FB07F70CFB06F402FB0CFC64
:1012900014EB074441EB17414FEA154714EB0C449C
:1012A00041EB1C4125EA074C02FB07F506FB07F75B
:1012B0000CFB06F602FB0CFC16EB074645EB17454C
:1012C00016EB0C4645EB1C42121951F1000148BFC8
:1012D0007047B619524141EB0101A3F10103704778
:1012E0004FEA14454FEA114724EA054621EA074C24
:1012F00005FB07F106FB07F70CFB06F24FF00006B3
:1013000005FB0CFC12EB074241EB174112EB0C42C0
:1013100051EB1C4148BF7047921841EB0101A3F10A
:101320000103704700BFFEE770477FB505460C46D6
:101330000121084600F042FCADF80850ADF8044029
:101340000020ADF80600ADF80A0001A94FF080407A
:1013500000F0F8FF01221146900700F06EFF1C20FC
:101360008DF8000001208DF803008DF801008DF844
:101370000200684600F044F90121880700F0C0FE31
:101380007FBD2DE9F0410246002500260020002304
:101390000024002791F803C00CF00F0591F803C05A
:1013A0000CF0100CBCF1000F03D091F802C04CEA15
:1013B000050591F800C0BCF1000F31D01468002081
:1013C0002BE04FF0010C0CFA00F3B1F800C00CEA6E
:1013D00003069E4220D183004FF00F0C0CFA03F756
:1013E000BC4305FA03FC4CEA040491F803C0BCF1C9
:1013F000280F06D14FF0010C0CFA00FCC2F814C003
:101400000AE091F803C0BCF1480F05D14FF0010C80
:101410000CFA00FCC2F810C0401C0828D1D314609C
:10142000B1F800C0BCF1FF0F34DD546800202EE09D
:1014300000F1080C4FF0010808FA0CF3B1F800C0F5
:101440000CEA03069E4221D183004FF00F0C0CFAE8
:1014500003F7BC4305FA03FC4CEA040491F803C00B
:10146000BCF1280F05D100F1080C08FA0CF8C2F8FD
:10147000148091F803C0BCF1480F07D100F1080CAB
:101480004FF0010808FA0CF8C2F81080401C082838
:10149000CED35460BDE8F0810246002093680B4033
:1014A0000BB1012000E0002070470161704700BFD0
:1014B000FEE7000001464906084A926942F001022F
:1014C000064B9A61064A526822F0E062044B5A6069
:1014D0001A4652680A435A607047000000100240E2
:1014E0000000014010B510480078012811D10121F9
:1014F0000E48FFF7D1FF60B9012001F00DF901217D
:101500000A48FFF7C9FF60B90020074908700120A9
:1015100010BD01210548FFF7BFFF012801D1024995
:1015200008700020F4E70000580000200008014087
:1015300008B50121042000F051FB5020ADF8000057
:1015400010208DF8030003208DF80200694604483E
:10155000FFF717FF10210248FFF7A7FF08BD0000A3
:101560000008014000BFFEE700B587B0012104205C
:1015700000F024FB0121082000F030FBC020ADF872
:10158000180004208DF81B0006A91A48FFF7F9FE81
:101590004FF6FF70ADF810000020ADF80C00ADF86C
:1015A0001200ADF80E0003A9134800F0CBFE002393
:1015B0001A460321104800F0AFFD684600F034FEE3
:1015C0000A20ADF8080069460B4800F0D7FD01215C
:1015D000094800F08FFD01221146074800F02DFE5A
:1015E0000021054800F080FE0121034800F088FD3D
:1015F00007B000BD000C014000080040704700002B
:1016000070B5002100230F22C47804B3154C246860
:1016100004F4E064C4F5E064210AC1F10403CA40A3
:10162000447804FA03F184781440214309010E4CF4
:101630000678A155047804F01F050124AC40057814
:101640006D11AD0005F1E025C5F8004109E0047811
:1016500004F01F050124AC40044D0678761145F8CE
:10166000264070BD0CED00E000E400E080E100E009
:1016700002490143024A1160704700000000FA0568
:101680000CED00E030B500240CE0002506E0002061
:10169000074901EBC5010855681CC5B2802DF6DB72
:1016A000601CC4B2082CF0DB00F0D0F830BD0000A4
:1016B00024010020F0B5144600267F2801DC3F29D4
:1016C00000DDF0BD0B46CF1701EB5777FF10C7F1D8
:1016D0000707FAB2CF1701EB5777FF10A1EBC70747
:1016E000FDB2C5F107070123BB40DEB24CB10A4B86
:1016F00003EBC0039B5C3343074F07EBC007BB54AE
:1017000008E0054B03EBC0039B5CB343024F07EBC0
:10171000C007BB5400BFD4E72401002008B5012155
:101720000C2000F05BFA10208DF803003820ADF893
:10173000000002208DF8020069464048FFF721FEB4
:1017400010208DF80300C002ADF8000002208DF8D3
:10175000020069463A48FFF714FE00203949086044
:10176000642000F0D9FF01203749C1F88C01002125
:10177000AE2000F051F90021D52000F04DF90021F4
:10178000502000F049F90021A82000F045F900217F
:101790003F2000F041F90021D32000F03DF9002165
:1017A000084600F039F90021402000F035F9002109
:1017B0008D2000F031F90021142000F02DF90021D6
:1017C000202000F029F90021022000F025F9002155
:1017D000A12000F021F90021C02000F01DF9002116
:1017E000DA2000F019F90021122000F015F900218B
:1017F000812000F011F90021EF2000F00DF9002107
:10180000D92000F009F90021F12000F005F90021AC
:10181000DB2000F001F90021302000F0FDF800216C
:10182000A42000F0F9F80021A62000F0F5F800212E
:10183000AF2000F0F1F8FFF725FF08BD000C0140D4
:10184000000801408C8121420080214230B50024F3
:101850001CE004F1B001C8B2002100F0DDF8002165
:10186000084600F0D9F80021102000F0D5F8002536
:1018700008E0084901EBC501085D012100F0CCF842
:10188000681CC5B2802DF4DB601CC4B2082CE0DB00
:1018900030BD0000240100202DE9F04F80460C46A9
:1018A00015461E46A346A5F12000C5B200273EE01E
:1018B0000C2E07D105EB45001F4901EB800010F805
:1018C000079004E01D4800EB051010F807904FF05A
:1018D000000A26E009F0800028B121464046099A16
:1018E000FFF7E8FE09E0099808B9012000E00020B0
:1018F000024621464046FFF7DDFE4FEA49604FEAC7
:101900001069601CC4B2A4EB0B00B04205D15C4668
:1019100008F1010000F0FF0806E00AF1010000F004
:10192000FF0ABAF1080FD5DB00BF781CC7B2B74277
:10193000BEDBBDE8F08F00008E30000802350008E5
:101940002DE9FF4F81B0074691461E460E9D4FF090
:10195000000A002439E0301B401EC1B20A2000F00A
:1019600087FFB9FBF0F00A21B0FBF1F201FB12088E
:10197000BAF1000F16D1701EA04213DDB8F1000FAE
:101980000ED10120AB4605EBDB71491001FB047160
:101990000090C8B22B4620220299FFF77DFF12E08B
:1019A0004FF0010A0120AB4605EBDB71491001FB4A
:1019B00004710090C8B208F13001CAB22B460299F6
:1019C000FFF76AFF00BF601CC4B2B442C3DB05B0BE
:1019D000BDE8F08F78B505460E46144618E07A2D1E
:1019E00003DD002506F11000C6B23A2E04DD00200A
:1019F00005460646FFF746FE0120009022780C239C
:101A000031462846FFF748FF05F10800C5B2641CBF
:101A100020780028E3D178BD10B50A461AB1012319
:101A2000114C236002E000230F4C2360002114E0DE
:101A300000230E4C236000F080031BB10123241F00
:101A4000236003E00023094C241F23600123074C7B
:101A500023604306180E4B1CD9B20829E8DB01238A
:101A6000014C236010BD0000BC0121429481214241
:101A700008B5FFF7EBFE3DA200210846FFF7AAFFDD
:101A80003FA20A210020FFF7A5FF40480068002878
:101A90000EDB3FA20A215020FFF79CFF0C200523FC
:101AA00000903A480A2102685A20FFF749FF0EE0E9
:101AB00038A20A215020FFF78DFF0C20052300904B
:101AC0003248006842420A215A20FFF739FF32A209
:101AD00014210020FFF77EFF3248006800280EDB4B
:101AE0002BA214215020FFF775FF0C200523009036
:101AF0002C48142102685A20FFF722FF0EE025A28D
:101B000014215020FFF766FF0C2005230090254884
:101B10000068424214215A20FFF712FF22A21E2120
:101B20000020FFF757FF2348006800280EDB18A2AB
:101B30001E215020FFF74EFF0C20052300901D486A
:101B40001E2102685A20FFF7FBFE0EE011A21E21A3
:101B50005020FFF73FFF0C20052300901548006838
:101B600042421E215A20FFF7EBFE08BD56656C6FFE
:101B700063697479466565646261636B00000000A7
:101B80005461726765745F56203A000000000020BF
:101B90002B0000002D00000043757272656E745FAB
:101BA000563A00000400002050574D2020202020ED
:101BB000203A0000080000207047000029B1064AC2
:101BC000D2690243044BDA6104E0034AD2698243DA
:101BD000014BDA61704700000010024029B1064A4B
:101BE00092690243044B9A6104E0034A926982437A
:101BF000014B9A61704700000010024030B500218F
:101C00000022002400232D4D6D6805F00C0121B148
:101C1000042905D0082923D105E0294D056022E0DB
:101C2000274D05601FE0254D6D6805F47012234DAA
:101C30006D6805F48034022505EB92421CB9214DF4
:101C4000554305600BE01D4D6D6805F400351DB171
:101C50001C4D5543056002E0194D5543056002E0F7
:101C6000174D056000BF00BF144D6D6805F0F00111
:101C70000909154D6B5C0568DD4045600F4D6D68C9
:101C800005F4E061090A104D6B5C4568DD40856034
:101C90000A4D6D6805F46051C90A0B4D6B5C4568CF
:101CA000DD40C560054D6D6805F44041890B074D69
:101CB0006B5CC568B5FBF3F5056130BD00100240F3
:101CC00000127A0000093D00300000204000002092
:101CD00005490888B0F5704F02DBA0F57F40FF385A
:101CE0000021014A1180704724080040704700001D
:101CF00010B50446002C0EDB0020104908600120BE
:101D00000F49C1F8B0010F490C80A1B20D4840380D
:101D100000F0E7FA11E0002C0FDA01200749086013
:101D200000200749C1F8B0016042064908806042BE
:101D300081B20448403800F0D4FA10BDB481214289
:101D40000080214240040040042808D14FF0E021E7
:101D5000096941F004014FF0E022116107E04FF002
:101D6000E021096921F004014FF0E0221161704780
:101D70007047000030B589B005460C4601210820A7
:101D8000FFF72CFF01210220FFF718FF4FF440500E
:101D9000ADF8200010208DF8230003208DF82200DC
:101DA00008A91E48FFF7EDFA0220ADF82000182020
:101DB0008DF8230003208DF8220008A91748FFF7AB
:101DC000E0FAA8B2ADF81800A0B2ADF814000020F7
:101DD000ADF81600ADF81A0005A9114800F0B2FAE6
:101DE0006020ADF804000020ADF80C000120ADF833
:101DF00006000020ADF80A0001A9094800F026FA03
:101E00000021074800F060FA0121054800F066F95A
:101E10000121034800F074F909B030BD000C014005
:101E200000040040F0B50C46154600220021068C47
:101E30004FF6FE773E400684028B018C4FF60C76FF
:101E400032407E1C06EA03162E433243104EB04247
:101E50000ED0104EB0420BD0B0F1804F08D00E4ED5
:101E6000B04205D00D4EB04202D00D4EB04206D168
:101E70004FF6FD76314044F00106314305E04FF660
:101E8000F576314044F00106314302830184F0BD10
:101E9000002C0140003401400004004000080040D4
:101EA000000C0040F0B50C4615460022002100262B
:101EB000078C4FF6EF7C07EA0C070784028B018C36
:101EC0004FF6FF7707EA041640F6FF473A404FF611
:101ED000FF7707EA03373A434FF6FF7707EA05270C
:101EE0003A43114FB8420ED0104FB8420BD0B0F168
:101EF000804F08D00E4FB84205D00E4FB84202D0E6
:101F00000D4FB84206D14FF6DF77394046F0100743
:101F1000394305E04FF65F77394044F01007394305
:101F200002830184F0BD0000002C01400034014018
:101F30000004004000080040000C0040F0B50C46D2
:101F40001546002200210026078C4FF6FF6C07EA99
:101F50000C070784828B018C4FF6FF7707EA042673
:101F60004FF60C773A404FF6FF7707EA03172F43F7
:101F70003A43114FB8420ED0104FB8420BD0B0F1D7
:101F8000804F08D00E4FB84205D00E4FB84202D055
:101F90000D4FB84206D14FF6FF57394046F48077CF
:101FA000394305E04FF2FF57394044F48077394315
:101FB00082830184F0BD0000002C01400034014008
:101FC0000004004000080040000C0040F0B50C4642
:101FD0001546002200210026078C4EF6FF7C07EAFA
:101FE0000C070784828B018C4FF6FF7707EA0436D3
:101FF00040F6FF473A404FF6FF7707EA05273A4396
:102000004FF6FF7707EA03373A43114FB8420ED035
:10201000104FB8420BD0B0F1804F08D00E4FB842ED
:1020200005D00E4FB84202D00D4FB84206D14DF642
:10203000FF77394046F48057394305E047F6FF57AC
:10204000394044F48057394382830184F0BD000055
:10205000002C014000340140000400400008004012
:10206000000C004010B50121880700F076F8012827
:102070001ED1FFF72DFE0F4908600F48006860B1C0
:10208000084601680D48006800F0CCFA0C49086069
:1020900008460068FFF72CFE06E0002008490860AB
:1020A00008460068FFF724FE0121880700F025F8A4
:1020B00010BD0000040000201800002000000020D7
:1020C00008000020044800880348008820F0010030
:1020D00001490880704700001008004021B10288C3
:1020E00042F08002028004E002884FF67F731A40BB
:1020F00002807047CA4302827047CA430282704717
:1021000021B1028842F00102028004E002884FF609
:10211000FE731A4002807047F0B50C4615461E4605
:102120000021002200230189028B038C4FF6F877EF
:10213000394021434FF6FC473A4040F201173A43F9
:102140004FF6DD773B404FF6FF7707EA06172F4340
:102150003B43018102830384F0BD30B50246002079
:1021600000230024158A05EA0103958905EA010484
:1021700013B10CB1012000E0002030BD70B5054660
:102180000C46244885420ED0234885420BD0B5F139
:10219000804F08D02148854205D02148854202D091
:1021A0002048854200D100E000BF208850B9238933
:1021B000A28861882846FFF735FEE188284600F0AE
:1021C00095F825E0208804280AD12389A28861880F
:1021D0002846FFF767FEE188284600F090F817E0F0
:1021E000208808280AD12389A28861882846FFF719
:1021F000A5FEE188284600F08FF809E02389A2882F
:1022000061882846FFF7E2FEE188284600F08DF855
:1022100070BD0000002C014000340140000400406B
:1022200000080040000C0040002101804180012195
:1022300081800021C180018170471AB183890B43DD
:10224000838102E083898B438381704770B50022CC
:1022500000230024058C4EF6FF7635400584038C60
:102260008488828B48F6FF752A404FF6FF452A4046
:102270000D884FF6FF7606EA05252A434DF6FF75D1
:102280002B400D8906EA05352B434D8806EA0535B6
:102290002B430B4DA84202D00A4DA84208D14BF661
:1022A000FF752C408D894FF6FF7606EA85152C4385
:1022B00084808283CD88A0F84050038470BD0000E4
:1022C000002C0140003401400A460021818B4FF26E
:1022D000FF7319404FF6FF7303EA0223194381830A
:1022E0007047A0F84010704781847047028B4FF60A
:1022F000F3731A400283028B0A4302837047028BF6
:102300004FF2FF331A400283028B4FF6FF7303EA4A
:1023100001231A4302837047828B4FF6F3731A40EE
:102320008283828B0A4382837047828B4FF2FF3312
:102330001A408283828B4FF6FF7303EA01231A430C
:1023400082837047002202881D4B98420ED01D4B9D
:1023500098420BD0B0F1804F08D01B4B984205D06B
:102360001A4B984202D01A4B984204D14FF68F7301
:102370001A404B881A43174B984207D0164B984285
:1023800004D04FF6FF431A40CB881A4302808B8853
:1023900083850B8803850A4B98420BD0094B9842E2
:1023A00008D00E4B984205D00D4B984202D00D4BF1
:1023B000984201D10B7A0386012383827047000083
:1023C000002C01400034014000040040000800409F
:1023D000000C00400010004000140040004001408C
:1023E000004401400048014010B540F225511D480D
:1023F00000F054F810B31B4800F00CF9C4B21A48AE
:10240000008800F40040C8B91748008800F48040F4
:1024100060B10A2C03D000201349088020E0124844
:10242000008840F400401049088019E00D2C06D1C6
:102430000D48008840F480400B49088010E00A48AD
:102440000088C0F30D0009490C5407480088401C5F
:102450000549088008460088C72801DD002008805B
:1024600010BD0000003801404C0000205C0000203E
:1024700010B540F22551024800F010F810BD0000E0
:102480000048004021B1828942F40052828104E078
:1024900082894DF6FF731A408281704770B50246FB
:1024A000002400230025002040F66A16B14200D126
:1024B00000BFC1F3421501F01F03012606FA03F322
:1024C000012D02D19689334006E0022D02D1168AF1
:1024D000334001E0968A33400C12012606FA04F4D8
:1024E0001688344013B10CB1012000E0002070BD0B
:1024F000F0B50346002400260025002040F66A17A8
:10250000B94200D100BF1846C1F3421401F01F06C2
:10251000012707FA06F5012C01D10C3004E0022C4A
:1025200001D1103000E014301AB107682F43076062
:1025300002E00768AF430760F0BD00002DE9F047F7
:1025400086B005460E460024A24600BFA1460027DD
:10255000B08900B100BF2F462C8A4CF6FF700440B2
:10256000F08804432C82AC894EF6F3100440B08806
:1025700031890843718908430443AC81AC8A4FF622
:10258000FF400440B0890443AC8201A8FFF736FB4A
:102590001F48874202D1DDF810A001E0DDF80CA051
:1025A000A88900F4004040B10AEBCA0000EB0A1011
:1025B00031684900B0FBF1F807E00AEBCA0000EB14
:1025C0000A1031688900B0FBF1F86420B8FBF0F024
:1025D00004012009642101FB1089A88900F400404E
:1025E00040B1322000EBC900B0FBF1F000F0070071
:1025F000044308E0322000EB09106421B0FBF1F045
:1026000000F00F0004432C8106B0BDE8F087000005
:102610000038014001468888C0F30800704700BFB9
:10262000FEE700002DE9F84F05460E46AC1B20469C
:1026300000F0D2FB834614480168584600F0E4FBE2
:10264000814612490968601A00F0C6FB83461048AB
:102650000168584600F0D8FB8246494600F03EFB30
:1026600080460C48006800F0B7FB4146009000F03F
:1026700035FB074600F094FB0649086003480460F8
:1026800008460068BDE8F88F1000002054000020C4
:102690000C00002050000020490050EAC12018BF63
:1026A00004204A0D18BF40F0010040F2FF72B2EB67
:1026B000515F08BF40F00200012808BF05207047A5
:1026C00030380A2801D2012070470020704700BF2F
:1026D0007047000010B56FF00400FFF735FB0A48A3
:1026E00000680A49B0FBF1F0094908700846007813
:1026F00000EB4001C1EBC0104FF6FF7101EAC000D2
:102700000449088010BD00001C00002000127A005F
:1027100044000020460000200146114A12884A4326
:102720004FF0E0235A6100229A611A46126942F082
:1027300001021A6100BF4FF0E022106900F00102AF
:102740001AB100F48032002AF5D04FF0E02212696D
:1027500022F001024FF0E0231A6100229A617047D3
:102760004600002000BF054A128802F04002002AFD
:10277000F9D0C2B2014B1B1D1A80704700380140CE
:102780004FF4A060FEF774FFFFF7A4FF0220FEF7EE
:1027900091FEFEF7CDFEFEF7C1FF4FF4165000F09C
:1027A00073F8FEF7E1FE002141F61F40FFF7E2FA61
:1027B000632141F61F40FEF7B8FD4FF4FA60FFF7C2
:1027C000ABFF2BE00520FFF7A7FF002014490860AE
:1027D000FEF788FE38B11348006808B9012000E010
:1027E000002010490860FFF743F90F4801680FA067
:1027F000FDF7F8FC1348016813A0FDF7F3FC11483E
:10280000006800F0FFF90646134A144B00F0A2F8E6
:10281000044622460B4612A0FDF7E4FCD2E7000076
:1028200090012142180000200000002054617267CE
:10283000657456656C6F63697479A3BA25640D0A73
:102840000000000004000020456E636F646572A301
:10285000BA25640D0A000000A4703D0AD7A3F03F1A
:10286000D7AACBD9A3BA252E3366722F730D0A00CF
:1028700010B50246012000E050430B1EA1F10104F7
:10288000E1B2F9D110BD000010B586B004460121B7
:1028900044F20400FFF7A2F94FF40070ADF8140001
:1028A00003208DF8160018208DF8170005A91C4884
:1028B000FEF767FD4FF48060ADF8140004208DF83A
:1028C000170005A91648FEF75CFD25208DF80000CD
:1028D00000208DF801008DF8020001208DF8030022
:1028E0006846FEF78DFE01940020ADF80800ADF8B3
:1028F0000A00ADF80C00ADF810000C20ADF80E0089
:1029000001A90848FFF71AFE012240F225510548A7
:10291000FFF7EEFD01210348FFF7B4FD06B010BD3F
:10292000000801400038014010B500290AD008789D
:10293000002807D005487844FEF7ECF8002801D0BD
:10294000002010BD0248784410BD00007212000043
:102950006A1200002DE9C04130B4DFF8A0C23CEAA1
:10296000111418BF3CEA131400F0EC8081EA03054F
:102970001CEA111444EAD57418BF1CEA131500F0C0
:10298000C780A4EB05044FF0004545EAC12145EAA4
:10299000C32341EA505143EA525304F17F749942F0
:1029A00004F500344FEAC0204FEAC22208BF90422B
:1029B00000F09C804FEA13650FF24016765D4FEAF7
:1029C000134506FB05F7C7F1807706FB07F74FEACB
:1029D000D737A7FB03687642C8F58038A7FB06CE39
:1029E00038BFA8F1010807FB08E64FF0000EA6FB70
:1029F000028CE6FB03CEDCF1000CCEF1004E38BFBA
:102A0000AEF1010EA6FB0C584FF000074FF0000589
:102A1000E6FB0E87A1FB08C6A0FB07CE16EB0E0651
:102A200045F10005E1FB076515F1E04E7EBFA4F519
:102A300080345FEA46066D4116F1800745F10005D6
:102A40004FEA17274FEA066647EA0567A6F1DE4612
:102A5000B6F1805F4FEA15251FD9384624F0010CE6
:102A600005EBC471BCF1FE6F01EB0C1102D8F0BC98
:102A7000BDE8008124425CBF01F5801E9EEAC47F50
:102A800002D4F0BCBDE80081244238D4F0BCA1F1EE
:102A9000C041BDE8004100F01AB94FEAD22242EA33
:102AA00043524FEAD323A7FB02864FEAD02040EAE5
:102AB000415007FB03661EEA0E0F4FEAD12105FBCA
:102AC000026658BFA6EB0056B6EB00564FEA520E10
:102AD0004EEAC37E18EB0E0E56EB530EBDD518EB27
:102AE00002085E417F1C55F10005B6E74FF48015E2
:102AF0004FF000074FF000064FF00008ADE7F0BCC4
:102B00004FF0000001F1C04101F00041BDE800813B
:102B100011EA0C1F0CEA131500D00CE013EA0C1F8D
:102B200000F025804FF00000F0BC81EA030101F0C5
:102B30000041BDE80081F0BCBDE8004181EA03012D
:102B400000F0C5B8F0BCBDE8004170B500F071F808
:102B5000097EFC3E00F007B881EA03014FF0000057
:102B600001F00041704781EA030100F0B0B8F0BC09
:102B7000BDE800414FF0000021497047FFFDFBF91F
:102B8000F7F5F4F2F0EEEDEBE9E8E6E4E3E1E0DEA0
:102B9000DDDBDAD8D7D5D4D3D1D0CFCDCCCBCAC812
:102BA000C7C6C5C4C2C1C0BFBEBDBCBBBAB9B8B739
:102BB000B6B5B4B3B2B1B0AFAEADACABAAA9A8A82C
:102BC000A7A6A5A4A3A3A2A1A09F9F9E9D9C9C9BFA
:102BD0009A999998979796959594939392919190A5
:102BE0008F8F8E8E8D8C8C8B8B8A89898888878736
:102BF0008685858484838382828181800000FF07AB
:102C00000000F87F10F0004248BF4042B0FA80F365
:102C100010FA03F10AD0C3F11D0303F580634FEAF4
:102C2000415002EB035202EBD12170474FF00000FC
:102C300070470EF1020E2EF0030E5EF8046B364262
:102C400005D4012A43EB030515F5001F12D801280E
:102C500041EB010C1CF5001F0CD80ED14FEAD17CC2
:102C600015F5001F0CEB4C0C0CF1020C08BF4CEBE3
:102C7000D37C04E04FF0080C01E04FEAD37C0CEB6E
:102C80004C0526FA05F606F00706B6F1040C06D246
:102C90000EEB860CBDE870404CF0010C6047DFE89D
:102CA0000CF0090B02024FF000414FF00000A1F5BB
:102CB000002170BD19461046012851EB010418BFD0
:102CC000D4F5001484BF002001F0004170BD080855
:102CD000A0F500114FEA31017047000090EA010FA2
:102CE00048BF81F0004100F16281421A3CBF801A66
:102CF00089184FEAD0524FF07F4C1CEA410FA2EBEB
:102D0000D15318BF9CEA026F00F03B804FF0004C9B
:102D10004CEA00204CEA012121FA03FC10EB0C0CD8
:102D20001ED202F1FF325FEA1C2040EBC25038BFD6
:102D300070471CF07F0F4FEA400C18BFBCF17F4F6B
:102D400038BF7047C3F12003994008BF20F001004D
:102D5000BCF17F4F38BF7047A0F1C04000F01BB9F5
:102D60004FEA3C00000A40EBC25028BF1CF0FF0FA6
:102D70004FEA400CE6D018BFBCF17F4F38BF704718
:102D8000EAE79CEA026F05D010EA5C0F08BF00F08A
:102D90000040704710B500F0B8F800BF64FBBE3EBD
:102DA00041000B0ED3F19E0208D950F400034FEA04
:102DB000032323FA02F048BF4042704710B500F0E9
:102DC000A4F800BF49922480002070476FF00042B1
:102DD00082EA20007047000010F0004148BF4042E6
:102DE000B0FA80F310FA03F2C3F19D030BD051EA5D
:102DF000C35101EB1220530638BF704700F10100A8
:102E000008BF20F0010070474FF47F0C1CEAD0127D
:102E10001EBF1CEAD11392EA0C0F93EA0C0F00F0CC
:102E2000478090EA010F48BF42F480724FF0004C97
:102E30004CEA00204CEA012102EB0302A0FB011343
:102E4000A2F50002002918BF43F001035B0028BF70
:102E50004FEA330342EB22425FEA132C4CEBC250A1
:102E60002EBFBCEB436FB2F57C0F70474FEA036C8B
:102E7000BCF1004F08BF20F00100B2F57C0F38BF55
:102E800070470BD582F0FF0212F5803FC8BF704734
:102E900000F1C040D8BF00F00040704700F5000CC2
:102EA0005FEA4C0C48BF7047B0F1C04000F073B807
:102EB00090EA010F0CEAD11348BF42F480726245D8
:102EC00038BF634504D280EA010000F0004070473B
:102ED00010B500F01AF800BF8900013E00F007B8F5
:102EE00000F009B85FEA410C5FEA1C6C08D080EA88
:102EF000010000F050B85FEA400C5FEA1C6CF6D1AC
:102F00004FF00040A0F5800070470EF1020E2EF049
:102F1000030E5EF8044B244204D44FEA4102B2F19E
:102F20007F4F11D84FEA4003B3F17F4F0CD80ED139
:102F30004FEAD07CB2F17F4F0CEB4C0C0CF1020C41
:102F400008BF4CEBD17C04E04FF0080C01E04FEAE5
:102F5000D17C0CEB4C0324FA03F404F00704B4F125
:102F6000040C06D20EEB840CBDE810404CF0010CB2
:102F70006047DFE80CF0070802024FF00040A0F5C0
:102F8000800010BD0846420018BFD2F1807288BF91
:102F900000F0004010BDFF2141EAD050C00570474D
:102FA00090EA010F48BF81F000413FF59EAE421A02
:102FB00004D882F00042A0EB020011444FEAD05244
:102FC0004FF07F4C1CEA410FA2EBD15318BF9CEA93
:102FD000026F4AD04FF0004C4CEA00204CEA01212D
:102FE00021FA03FCB0EB0C0C0FD412F0FE0F36D01C
:102FF0005FEA4C001DD5001240EBC25038BF70474D
:103000001CF03F0F18BF70470BE0A2F101025FEA0E
:103010001C2040EBC25038BF70471CF07F0F18BF18
:103020007047C3F12003994014BF401E20F00100F7
:10303000704780084FEA122308BF7047B0FA80FC3F
:10304000A2EB0C02CCF1280C60FA0CF093EA122FE0
:1030500004BF00EBC25070474FEAC3707047130AB9
:103060005FEADC1008BF7047F6E79CEA026F04D005
:1030700010EA5C0F08BF0020704710B5FFF745FF4E
:1030800040DFF63E81F000407047FDF7B0BA000027
:1030900000000000000000000000000000003F40B1
:1030A0000000000000000000300040003000400040
:1030B000000009000BC03D000BC03D00090018C016
:1030C00024407FE0224031800000180024C01B0013
:1030D0000D803240018003801C4027401C80074047
:1030E0000040100060000000000000000000000030
:1030F000000000001F8020404020000040202040B1
:103100001F8000000000090006001F800600090063
:103110000000040004003F800400040000000010D0
:103120000060000000000000000004000400040033
:103130000400040000000000004000000000000047
:103140000000002001C006003800400000001F8081
:103150002040204020401F800000000010403FC061
:1031600000400000000018C02140224024401840C8
:10317000000010802040244024401B8000000200FA
:103180000D0011003FC0014000003C80244024405D
:103190002440238000001F802440244034400380CA
:1031A00000003000200027C03800200000001B80F5
:1031B0002440244024401B8000001C0022C02240E8
:1031C00022401F80000000000000084000000000B6
:1031D000000000000000046000000000000000008B
:1031E00004000A0011002080404009000900090085
:1031F00009000900000000004040208011000A0082
:1032000004001800200023402400180000001F8044
:103210002040274029401F400000004007C03900DF
:103220000F0001C0004020403FC0244024401B80CC
:1032300000001F80204020402040308000002040BF
:103240003FC0204020401F80000020403FC024405D
:103250002E4030C0000020403FC024402E003000EF
:1032600000000F00108020402240338002002040E8
:103270003FC0040004003FC02040204020403FC029
:103280002040204000000060202020203FC020007F
:10329000200020403FC024400B0030C02040204090
:1032A0003FC020400040004000C03FC03C0003C081
:1032B0003C003FC0000020403FC00C4023003FC006
:1032C00020001F802040204020401F800000204020
:1032D0003FC024402400180000001F8021402140EE
:1032E00020E01FA0000020403FC02440260019C05D
:1032F000004018C0244024402240318000003000AB
:1033000020403FC020403000000020003F800040AF
:1033100000403F80200020003E0001C00700380030
:103320002000380007C03C0007C0380000002040E3
:1033300039C0060039C0204000002000384007C0D6
:10334000384020000000304021C02640384020C0D6
:103350000000000000007FE040204020000000004E
:1033600070000C000380004000000000402040205E
:103370007FE000000000000020004000200000006E
:1033800000000010001000100010001000100000DD
:103390000000400000000000000000000280054026
:1033A000054003C0004020003FC0044004400380AB
:1033B00000000000038004400440064000000000BC
:1033C0000380044024403FC00040000003800540CB
:1033D000054003400000000004401FC0244024407A
:1033E0002000000002E00550055006500420204057
:1033F0003FC00440040003C000400000044027C058
:1034000000400000000000100010041027E0000041
:10341000000020403FC00140070004C0044020409D
:1034200020403FC000400040000007C0040007C02B
:10343000040003C00000044007C00440040003C0AF
:10344000004000000380044004400380000004109A
:1034500007F0045004400380000000000380044093
:10346000045007F00010044007C0024004000400AC
:103470000000000006400540054004C000000000B8
:1034800004001F800440004000000400078000404A
:10349000044007C000400400070004C0018006008B
:1034A0000400060001C0070001C00600000004403F
:1034B00006C0010006C0044000000410071004E02C
:1034C0000180060004000000044005C006400440DE
:1034D00000000000000004007BE04020000000002D
:1034E00000000000FFF000000000000040207BE032
:1034F0000400000000004000800040002000200088
:10350000400000000000000000000000000000007B
:1035100000000000000000001FCC000C00000000B4
:10352000000000000800300060000800300060006B
:103530000000022003FC1E20022003FC1E200220AB
:10354000000000000E1811043FFF10840C780000EA
:1035500000000F0010840F3800C00778188400782E
:10356000000000780F8410C411240E9800E4008439
:103570000008080068007000000000000000000063
:10358000000000000000000007E0181820044002BE
:103590000000000040022004181807E000000000AE
:1035A00000000240024001800FF001800240024012
:1035B00000000080008000800FF800800080008004
:1035C00000000001000D000E0000000000000000DF
:1035D00000000000008000800080008000800080EB
:1035E00000800000000C000C000000000000000043
:1035F00000000000000600180060018006001800AE
:103600002000000007F0080810041004080807F064
:1036100000000000080408041FFC0004000400006F
:10362000000000000E0C10141024104411840E0C25
:10363000000000000C1810041104110412880C7012
:103640000000000000E00320042408241FFC0024E4
:10365000000000001F9810841104110410881070DD
:103660000000000007F00888110411041888007099
:10367000000000001C00100010FC13001C001000D3
:10368000000000000E3811441084108411440E38DC
:10369000000000000700088C10441044088807F060
:1036A0000000000000000000030C030C00000000FC
:1036B0000000000000000001010600000000000002
:1036C00000000000008001400220041008081004DF
:1036D00000000220022002200220022002200220FC
:1036E00000000000100408080410022001400080BF
:1036F000000000000E001200100C106C10800F0073
:10370000000003E00C1813E4142417C4082807D0A1
:1037100000000004003C03C41C40074000E4001CFF
:10372000000410041FFC1104110411040E88007021
:10373000000003E00C1810041004100410081C1002
:10374000000010041FFC100410041004080807F007
:10375000000010041FFC1104110417C41004081801
:10376000000010041FFC1104110017C01000080015
:10377000000003E00C181004100410441C780040F2
:10378000000010041FFC10840080008010841FFCC7
:1037900010040000100410041FFC100410040000AA
:1037A000000000030001100110011FFE10001000B6
:1037B000000010041FFC110403801464181C100482
:1037C000000010041FFC1004000400040004000C9E
:1037D000000010041FFC1F0000FC1F001FFC100451
:1037E000000010041FFC0C04030000E010181FFC74
:1037F000100007F00808100410041004080807F06F
:10380000000010041FFC10841080108010800F0036
:10381000000007F0081810241024101C080A07F2F2
:10382000000010041FFC1104110011C011300E0C17
:10383000000400000E1C11041084108410441C3875
:1038400000001800100010041FFC100410001800E5
:10385000000010001FF810040004000410041FF8FA
:10386000100010001E0011E0001C007013801C00EE
:1038700010001FC0103C00E01F0000E0103C1FC003
:1038800000001004180C163401C001C01634180CC6
:10389000100410001C00130400FC13041C00100092
:1038A00000000804101C1064108413041C04101879
:1038B00000000000000000007FFE400240024002C5
:1038C0000000000030000C0003800060001C0003BA
:1038D000000000004002400240027FFE00000000A5
:1038E00000000000000020004000400040002000D8
:1038F00000000001000100010001000100010001C1
:103900000001000040004000200000000000000016
:10391000000000000098012401440144014400FC1F
:10392000000410001FFC00880104010400880070DE
:1039300000000000007000880104010401040088F8
:1039400000000000007000880104010411081FFC41
:103950000004000000F8014401440144014400C88F
:1039600000000000010401040FFC11041104110007
:103970001800000000D601290129012901C901060A
:10398000000010041FFC008401000100010400FC81
:10399000000400000104190419FC000400040000E4
:1039A00000000000000300010101190119FE0000E0
:1039B000000010041FFC0024004001B4010C0104AD
:1039C00000000000100410041FFC000400040000AC
:1039D0000000010401FC0104010001FC01040100DC
:1039E00000FC010401FC008401000100010400FC52
:1039F0000004000000F8010401040104010400F8BF
:103A00000000010101FF008501040104008800702D
:103A1000000000000070008801040104010501FF9E
:103A200000010104010401FC008401040100018083
:103A30000000000000CC012401240124012401988D
:103A4000000000000100010007F80104010400006B
:103A50000000010001F8000400040004010801FC5A
:103A60000004010001800170000C00100160018061
:103A7000010001F0010C003001C00030010C01F028
:103A8000010000000104018C00740170018C01042C
:103A90000000010101810171000E00180160018028
:103AA000010000000184010C013401440184010C77
:103AB0000000000000000000000001003EFC400289
:103AC00040020000000000000000FFFF00000000B6
:103AD00000000000400240023EFC01000000000027
:103AE00000000000600080008000400040002000D6
:103AF0002000000002400000000000A000000000C4
:103B000005400000000000C8000000000C4000005C
:103B10000000409C00000000194000000020BCBED6
:103B20000000000034400000BFC91B8E00000004EC
:103B3000B5400000504BCFD06607E2CF0100000037
:103B40006C4100003E8251AADFEEA7340100000064
:103B5000D9420000DCB5A0E23A301F97FFFFFFFF1B
:103B6000B4450000FD25A0C8E9A3C14FFFFFFFFF3A
:103B7000FF3F00000000008000000000FF3F000049
:103B80000000008000000000C43B0008000000208E
:103B90005C00000028010008203C00085C000020B8
:103BA0002C0B0000440100081C0000004300000032
:103BB000F8FFFFFF0C0000000E0000000F000000E7
:103BC0002E00000064000000000000000000000063
:103BD0000000A0410000A040000000000000000024
:103BE00000A24A04000000000000000001020304DB
:103BF0000607080900000000010203040102030493
:103C00000607080902040608000000000000000082
:103C100000000000000000000000000001000000A3
:04000005080000ED02
:00000001FF
