:020000040800F2
:100000007007002089010008650400082504000825
:100010006104000895020008A70C00080000000019
:1000200000000000000000000000000005060008BD
:100030009902000800000000ED04000819070008FC
:10004000A3010008A3010008A3010008A301000800
:10005000A3010008A3010008A3010008A3010008F0
:10006000A3010008A3010008A3010008A3010008E0
:10007000A3010008A3010008A3010008A3010008D0
:10008000A3010008A3010008A3010008A3010008C0
:10009000A3010008A3010008A3010008A3010008B0
:1000A000A3010008A3010008A3010008A3010008A0
:1000B000A3010008A3010008A3010008A301000890
:1000C000A3010008A3010008A3010008A301000880
:1000D000A3010008850A0008A3010008A301000885
:1000E000A3010008A3010008A301000800F002F822
:1000F00000F03AF80AA090E8000C82448344AAF188
:100100000107DA4501D100F02FF8AFF2090EBAE885
:100110000F0013F0010F18BFFB1A43F0010318473B
:1001200098250000B8250000103A24BF78C878C18F
:10013000FAD8520724BF30C830C144BF04680C60ED
:10014000704700000023002400250026103A28BF35
:1001500078C1FBD8520728BF30C148BF0B60704739
:100160001FB51FBD10B510BD00F066F81146FFF7B2
:10017000F7FF00F049FE00F084F803B4FFF7F2FF48
:1001800003BC00F01BFE00000948804709480047F7
:10019000FEE7FEE7FEE7FEE7FEE7FEE7FEE7FEE737
:1001A000FEE7FEE704480549054A064B7047000094
:1001B0001D070008ED0000087001002070070020F6
:1001C0007003002070030020704710B5431C02E04C
:1001D00010F8011B71B18107FAD14FF0013202C84A
:1001E0008C1A8C4314EAC211F9D0C01A0A0603D043
:1001F000C01E10BDC01A10BD0A0401D0801E10BD63
:100200000902FCD0401E10BD704770477047704710
:1002100010B500F009F8006810BD10B5044600F0F4
:1002200003F8046010BD0000004870470C01002076
:10023000004870470C0100207546FFF7F9FFAE46F5
:1002400005006946534620F00700854618B020B5E2
:10025000FFF7A8FFBDE820404FF000064FF0000771
:100260004FF000084FF0000B21F00701AC46ACE85E
:10027000C009ACE8C009ACE8C009ACE8C0098D46CB
:10028000704710B50446AFF300802046BDE810402B
:10029000FFF773BF00BFFEE77047000010B50120F5
:1002A0000B49086000200B49C1F89C010120084956
:1002B000091F086000200749C1F89001C8210648BD
:1002C00000F07DFBC821044800F081FB10BD000058
:1002D0009801214200002142000800402DE9F04130
:1002E000024600250026002000230024002791F864
:1002F00003C00CF00F0591F803C00CF0100CBCF11A
:10030000000F03D091F802C04CEA050591F800C037
:10031000BCF1000F31D0146800202BE04FF0010C2D
:100320000CFA00F3B1F800C00CEA03069E4220D19B
:1003300083004FF00F0C0CFA03F7BC4305FA03FCE3
:100340004CEA040491F803C0BCF1280F06D14FF029
:10035000010C0CFA00FCC2F814C00AE091F803C0CA
:10036000BCF1480F05D14FF0010C0CFA00FCC2F8AB
:1003700010C0401C0828D1D31460B1F800C0BCF1F3
:10038000FF0F34DD546800202EE000F1080C4FF020
:10039000010808FA0CF3B1F800C00CEA03069E420B
:1003A00021D183004FF00F0C0CFA03F7BC4305FA80
:1003B00003FC4CEA040491F803C0BCF1280F05D1FA
:1003C00000F1080C08FA0CF8C2F8148091F803C088
:1003D000BCF1480F07D100F1080C4FF0010808FAF2
:1003E0000CF8C2F81080401C0828CED35460BDE839
:1003F000F08101617047000008B50121042000F080
:1004000087F8F020ADF8000010208DF803000320DD
:100410008DF8020069460248FFF760FF08BD000042
:100420000008014000BFFEE708B50121102000F0E0
:100430006FF84FF40050ADF8000010208DF8030065
:1004400003208DF8020069460448FFF747FF4FF488
:1004500000510248FFF7CDFF08BD00000010014029
:1004600000BFFEE77047000070B5002100230F2297
:10047000C47804B3154C246804F4E064C4F5E06463
:10048000210AC1F10403CA40447804FA03F18478D4
:100490001440214309010E4C0678A155047804F05C
:1004A0001F050124AC4005786D11AD0005F1E02574
:1004B000C5F8004109E0047804F01F050124AC40B0
:1004C000044D0678761145F8264070BD0CED00E02D
:1004D00000E400E080E100E002490143024A1160CB
:1004E000704700000000FA050CED00E070470000C6
:1004F00029B1064AD2690243044BDA6104E0034A97
:10050000D2698243014BDA6170470000001002405B
:1005100029B1064A92690243044B9A6104E0034AF6
:1005200092698243014B9A617047000000100240BB
:1005300030B500210022002400232D4D6D6805F008
:100540000C0121B1042905D0082923D105E0294D4A
:10055000056022E0274D05601FE0254D6D6805F41C
:100560007012234D6D6805F48034022505EB92422C
:100570001CB9214D554305600BE01D4D6D6805F418
:1005800000351DB11C4D5543056002E0194D554322
:10059000056002E0174D056000BF00BF144D6D6897
:1005A00005F0F0010909154D6B5C0568DD404560FB
:1005B0000F4D6D6805F4E061090A104D6B5C4568EC
:1005C000DD4085600A4D6D6805F46051C90A0B4D28
:1005D0006B5C4568DD40C560054D6D6805F44041C4
:1005E000890B074D6B5CC568B5FBF3F5056130BD44
:1005F0000010024000127A0000093D00180000209F
:1006000028000020704710B500F002F810BD00006F
:100610000CB50020019000903348006840F4803011
:100620003149086000BF3048006800F40030009095
:100630000198401C0190009818B90198B0F5A06F7E
:10064000F1D12948006800F4003010B10120009079
:1006500001E0002000900098012843D12348006861
:1006600040F01000214908600846006820F00300AF
:1006700008600846006840F0020008601A484068B8
:10068000194948600846406848600846406840F498
:10069000806048600846406820F47C104860084646
:1006A000406840F4E81048600846006840F08070F8
:1006B000086000BF0C48006800F000700028F9D006
:1006C0000948406820F00300074948600846406830
:1006D00040F00200486000BF0348406800F00C0092
:1006E0000828F9D10CBD0000001002400020024093
:1006F000042808D14FF0E021096941F004014FF0CE
:10070000E022116107E04FF0E021096921F00401C6
:100710004FF0E022116170477047000010B5134898
:10072000006840F00100114908600846406810491F
:1007300008400E494860084600680E4908400B49C9
:1007400008600846006820F4802008600846406879
:1007500020F4FE0048604FF41F008860FFF753FF4D
:100760004FF000600449086010BD00000010024016
:100770000000FFF8FFFFF6FE08ED00E030B589B09D
:1007800005460C4601210420FFF7B2FE0121082096
:10079000FFF7BEFE4020ADF8200018208DF82300A2
:1007A00003208DF8220008A92248FFF797FD80203A
:1007B000ADF8200018208DF8230003208DF82200CA
:1007C00008A91C48FFF78AFDADF81850ADF8144091
:1007D0000020ADF81A00ADF8160005A9164800F083
:1007E000FFF86020ADF804000120ADF806000020FD
:1007F000ADF80C0001A9104800F02CF86020ADF80D
:1008000004000120ADF806000020ADF80C0001A99D
:10081000094800F075F80821074800F067F808213A
:10082000054800F0BFF80121034800F007F809B0BF
:1008300030BD0000000C01400008004021B10288DA
:1008400042F00102028004E002884FF6FE731A4073
:100850000280704770B5002400220023058C4FF6FB
:10086000FE7635400584028C8388048B4FF68F75A5
:100870002C40B51E2C400D882C43751E2A400D8936
:100880002A434D882A43144DA8420BD0134DA84249
:1008900008D0134DA84205D0124DA84202D0124DE7
:1008A000A84213D14FF6F7752A404D892A434FF6D7
:1008B000FB752A408D882A434FF6FF652B404FF683
:1008C000FF552B408D892B43CD892B438380048397
:1008D000CD888586028470BD002C01400034014023
:1008E0000040014000440140004801400A46002108
:1008F000018B4FF6F77319401143018370470000D5
:1009000070B5002400220023058C4FF6EF763540A9
:100910000584028C8388048B48F6FF752C404FF6C3
:10092000FF452C400D884FF6FF7606EA05252C433F
:100930004FF6DF752A400D8906EA05152A434D88D2
:1009400006EA05152A43154DA84202D0144DA842C7
:100950001DD14FF67F752A404D894FF6FF7606EA86
:1009600005152A434FF6BF752A408D8806EA0515FE
:100970002A434FF6FF352B404FF2FF752B408D89F0
:1009800006EA85052B43CD8906EA85052B4383803E
:100990000483CD880587028470BD0000002C0140CF
:1009A000003401400A460021018B4FF2FF731940C9
:1009B0004FF6FF7303EA022319430183704701EBEB
:1009C00081024FF47A73A3EB42028286704701EBF7
:1009D00081024FF47A73A3EB420202877047000052
:1009E000002202881D4B98420ED01D4B98420BD01E
:1009F000B0F1804F08D01B4B984205D01A4B98425B
:100A000002D01A4B984204D14FF68F731A404B888C
:100A10001A43174B984207D0164B984204D04FF612
:100A2000FF431A40CB881A4302808B8883850B884A
:100A300003850A4B98420BD0094B984208D00E4BC5
:100A4000984205D00D4B984202D00D4B984201D1EF
:100A50000B7A03860123838270470000002C01403B
:100A6000003401400004004000080040000C004039
:100A700000100040001400400040014000440140CC
:100A80000048014010B540F225511D4800F04AF8D9
:100A900010B31B4800F002F9C4B21A48008800F4F1
:100AA0000040C8B91748008800F4804060B10A2CA3
:100AB00003D000201349088020E01248008840F449
:100AC00000401049088019E00D2C06D10D4800881F
:100AD00040F480400B49088010E00A480088C0F3C9
:100AE0000D0009490C5407480088401C054908803E
:100AF00008460088C72801DD0020088010BD0000DE
:100B000000380140340000204200002021B18289D9
:100B100042F40052828104E082894DF6FF731A404C
:100B20008281704770B50246002400230025002012
:100B300040F66A16B14200D100BFC1F3421501F080
:100B40001F03012606FA03F3012D02D196893340D3
:100B500006E0022D02D1168A334001E0968A334026
:100B60000C12012606FA04F41688344013B10CB1B5
:100B7000012000E0002070BDF0B5034600240026EF
:100B80000025002040F66A17B94200D100BF184680
:100B9000C1F3421401F01F06012707FA06F5012CE4
:100BA00001D10C3004E0022C01D1103000E01430EF
:100BB0001AB107682F43076002E00768AF43076078
:100BC000F0BD00002DE9F04786B005460E46002432
:100BD000A24600BFA1460027B08900B100BF2F4642
:100BE0002C8A4CF6FF700440F08804432C82AC89B8
:100BF0004EF6F3100440B0883189084371890843E8
:100C00000443AC81AC8A4FF6FF400440B0890443F2
:100C1000AC8201A8FFF78CFC1F48874202D1DDF8A7
:100C200010A001E0DDF80CA0A88900F4004040B15C
:100C30000AEBCA0000EB0A1031684900B0FBF1F87A
:100C400007E00AEBCA0000EB0A1031688900B0FB2C
:100C5000F1F86420B8FBF0F004012009642101FBE5
:100C60001089A88900F4004040B1322000EBC9008F
:100C7000B0FBF1F000F00700044308E0322000EB85
:100C800009106421B0FBF1F000F00F0004432C8147
:100C900006B0BDE8F08700000038014001468888B2
:100CA000C0F30800704700BFFEE7490050EAC120CA
:100CB00018BF04204A0D18BF40F0010040F2FF7237
:100CC000B2EB515F08BF40F00200012808BF0520C9
:100CD00070472DE9F0414F1E00EBC7010446D1E9F2
:100CE000000115461E4637F006020DD02A4633464F
:100CF00001F010F97F1E04EBC703D3E9002300F0D5
:100D000073FE37F00602F1D1022F25D0042F13D045
:100D1000062F18BFBDE8F0812A46334601F0FAF8E5
:100D2000D4E90A2300F060FE2A46334601F0F2F8C7
:100D3000D4E9082300F058FE2A46334601F0EAF8C9
:100D4000D4E9062300F050FE2A46334601F0E2F8CB
:100D5000D4E9042300F048FE2A46334601F0DAF8CD
:100D6000D4E9022300F040FE2A46334601F0D2F8CF
:100D7000D4E90023BDE8F04100F036BE002213465E
:100D80001046014900F0ECBE0000F03F00F02CBE20
:100D9000002213461046114600F0E2BE40F2013236
:100DA00000204FF0E04101F0F7BB0000024A0020B4
:100DB000110701F0F1BB000001FDFFFF014600BF7C
:100DC0007047000010B56FF00400FFF791FC0A486F
:100DD00000680A49B0FBF1F009490870084600783C
:100DE00000EB4001C1EBC0104FF6FF7101EAC000FB
:100DF0000449088010BD00000400002000127A00A1
:100E00002C0000202E000020FFF7DCFF4FF4A06034
:100E1000FFF762FB4FF4E13000F096FDFFF7ECFACC
:100E2000FFF702FB532144F61F60FFF7A7FC642184
:100E30001248FFF7C4FD64211048FFF7C8FD1CE00D
:100E40000F48008800F40040A8B10D480088C0F3A6
:100E50000D05002405E00B48005D0B490855601C9A
:100E600084B2AC42F7DB084800F002FD0749088075
:100E700000200349088000F0F7FCE1E7000800408B
:100E80003400002042000020380000200000002034
:100E90002DE9F04D1D460C4698B0174621F0004153
:100EA00023F00043002814BF4FF0010C4FF0000C5A
:100EB0000CEB440CFE4A0CEB02064FEA620C664552
:100EC0002BD33E0018BF012606EB45061644F94A0F
:100ED000964222D3F84A53EA070C02D0944205D135
:100EE00048B918B000201146BDE8F08D002808BFB1
:100EF0004FF0000C01D04FF0010C0CEB440212F546
:100F0000001F0AD8002F14BF4FF0010C4FF0000C47
:100F10000CEB450212F5001F07D918B03A462B46D4
:100F20002146BDE8F04DFFF731BF0022DFF88CA36A
:100F3000002CB8BF534526DADFF884C36345A8BF49
:100F4000022220DADFF870C39C451CDCDFF874C392
:100F50000CEB235CBCF1140F08DDCCF1340627FA4E
:100F600006FC0CFA06F6BE420DD108E05FB9CCF1E2
:100F7000140623FA06FC0CFA06F69E4203D10CF086
:100F80000102C2F1020251EA000C19D1002D17DA58
:100F9000002C18BF022A01D0012A07D00220FFF737
:100FA0003CF918B0BDE8F04DFFF7E8BE0220FFF7AE
:100FB00034F9FFF7E3FE18B081F00041BDE8F08D91
:100FC000B7F1000C6CD1534525D104F1804212F5E4
:100FD000801201BF00280020B74918B008BFBDE843
:100FE000F08DB548884207DC002DA1BF6046294638
:100FF00018B0BDE8F08D07E0281E05DA80F000414A
:1010000018B06046BDE8F08DAF497944D1E90001E0
:1010100018B0BDE8F08DDFF8A0C2634525D1002DE2
:101020001FDA19B1514512D1D8B909E0002840F0B2
:10103000EC82A24A214618B062F31E01BDE8F08D91
:101040000020214618B060F31E01BDE8F08D08DADB
:1010500018B02346BDE8F04D02460020614600F07E
:101060007FBD18B02146BDE8F08D514518DAB5F1C5
:10107000804F0DD0A5F1005CBCF1FF5C10D1B4F144
:10108000000C0DDB18B06146BDE8F04D00F036BC39
:10109000234618B00246BDE8F04D194600F03ABFAD
:1010A000060024F0004C3BD1D9B1514533D1002C7E
:1010B00006DD002DA1BF0020514618B0BDE8F08D1F
:1010C000002C01DD002D1BDB002C13DA002D11DBC1
:1010D000012A4FF0000014BF78497C4918B0BDE8E0
:1010E000F08D022A18BF002C0AD0012A08D1002C4A
:1010F00006DA0AE0002CB8BF002D11DA012A04D06C
:10110000002018B00146BDE8F08D18B000204FF067
:101110000041BDE8F08DA1F14050B0F17F601AD0E0
:10112000012000EBE47050EA020421D0624C521E10
:101130004FF0000B104304BF4FF0000B644C6548A8
:1011400083427CDD644A654893421FDD884217DB99
:10115000002D25DB37E0002C00DA4AB1022A0CBF53
:1011600001204FF0FF3018B0BDE8F04D00F07FBE19
:101170000120FFF752F818B0BDE8F04DFFF708BEA8
:101180004D4A8A4202DC002D0ADC1CE0814202DA70
:10119000002D18DA04E0484B994220DD002D12DDC5
:1011A0000220FFF73AF8FFF7F9FD05460E46002248
:1011B00053465846214600F0ADFE18B066F31E01B6
:1011C0002846BDE8F08D0220FFF727F8FFF7EEFD77
:1011D0000A46214618B062F31E01BDE8F08D0022D8
:1011E0003046614601F0BCF880460E466FF00102C1
:1011F00001F0D2F94FF05532394B00F0BFFF4246B3
:10120000334600F087FE0022364B00F0B7FF8246DF
:101210004246334604911046194600F07BFE524682
:10122000049B00F077FE8A4600904FF0C0422E4BA0
:101230004046314600F06EFE2C4A2B4B00E027E082
:10124000CDE906015146009800F064FE8246019106
:10125000274A284B4046314600F05CFE5246019B2F
:1012600001F07EF882460B4602460591DDE9060153
:1012700000F0BAFBDDE9062300268846304601F07F
:101280006FF85246059B00F079FF024600F07EB9E8
:101290000020B1F5801F07DA35223046614601F0A3
:1012A0007BF906466FF0340000EB215024E000008B
:1012B000FFFF1F00FFFF0F000000F03F0000F07F66
:1012C0000000404301FCFFFFA21600000000F0FFF9
:1012D0000000F0BF0000E0410000F043FFFFEF3FDF
:1012E0005555D53F0000E03F4715F73FFE822B657F
:1012F00044DF5DF80BAE543EA0F2FF300190C1F325
:10130000130040F07F6141F040510291FE49884254
:10131000D8BF002004DDFD498142C8BF012001DDA6
:101320000D9008E000200D900198401C019002985B
:10133000A0F5801002900299F54878440B910D9920
:1013400000EBC100D0E900230F9330460A920B99BD
:1013500001F006F8CDE90601DDE90A2130460F9BD0
:1013600000F042FB02460B460020EA4900F0F8FB81
:10137000059102460B460090DDE9060100F0CAFD2A
:101380001490E5488A464FF00008784402990068B6
:1013900012904FF0005040EA61010D980F9B01EB55
:1013A000804000F5002109910A9A129800F0D8FFB8
:1013B00032460B9B00F0E2FE4246534600F0AAFD87
:1013C0000646029140465146099B129A00F0A2FD42
:1013D000DDE9062300F0D2FE3246029B00F0C0FF9A
:1013E000059B009A00F096FD0091149A04905346D4
:1013F0001046194600F08EFD06460246C7480B46C9
:10140000029106217844FFF764FCCDE90510029BA8
:1014100032461046194600F07DFDDDE9053200F048
:1014200079FD05910646534640461946149A00F048
:10143000DBFA009B049A00F06DFD3246059B00F03C
:10144000D3FACDE90510424653461046194600F03E
:1014500061FD0022B24B02910A9000F0C5FADDE96D
:10146000053200F0C1FA0E464246AD4B404600F050
:1014700077FF029B0A9A00F073FFDDE9053200F066
:101480007DFE424602910A9033461046514600F0D6
:1014900041FDCDE906015346149A02990A9800F0DD
:1014A00039FD8A460290334642460099049800F07E
:1014B00031FD5346029A00F097FA82460B460246E7
:1014C0000591DDE9060100F08FFADDE90623002031
:1014D0008846064600F044FF5246059B00F04EFE4B
:1014E000824609914FF060428E4B3046414600F0F3
:1014F00011FD049006918C4A8A4B5046099900F0E0
:1015000009FD82460291894A894B3046414600F0E6
:1015100001FD5246029B00F067FA864B7B440D9A10
:1015200003EBC203D3E9002300F05EFA0E900791AB
:10153000019800F09CFC0591DDE9061382460E9AA5
:10154000049800F051FA7C4A7A440D9B02EBC303E5
:10155000D3E900230093029200F046FA5246059B1D
:1015600000F042FA0026884652463046059B00F0BD
:10157000F7FE009B029A00F0F3FE069B049A00F02F
:10158000EFFE079B0E9A00F0F9FD024600200B4685
:1015900002903846294600F0BDFC824601912B4658
:1015A00038461946029A00F0DBFE3246434600F008
:1015B000B1FC5246019B00F017FA07468A463246B4
:1015C00043462946029800F0A5FC05460E463A46D9
:1015D000534600F009FA594A8846914221DBA8EBAC
:1015E000020353EA000210D12A46334600F0B8FE47
:1015F000CDE90401524A534B3846514600F0F4F904
:10160000DDE9042300F084FD21D20220FEF705FE6F
:10161000FFF7C4FB0A46214618B062F31E01BDE87D
:10162000F08D494B28F000429A4210D3474A08EB0C
:10163000020353EA00027FF4C6AD2A46334600F0A7
:101640008FFE3A46534600F063FD7FF6BCAD0022A4
:10165000019228F000403E493E4A01EB205182426F
:1016600023DA481C4FF4801121FA00F040443A4A32
:10167000C0F30A517A44394BA1F2FF31CB4020EA42
:101680000303C0F3130040F48010C1F11401C840FB
:1016900012680190B8F1000FBCBF4042019028468B
:1016A000314600F05DFE05460E462A463346384672
:1016B000514600F099F94FF000084246284B404649
:1016C000059100F027FCCDE90601264A264B40464D
:1016D000059900F01FFC009102902A4633464046CF
:1016E000059900F03DFE3A46534600F047FD1F4A7B
:1016F0001F4B00F00FFC009B029A00F075F90746A3
:10170000884602460B4635E08E9803007AB60B00F9
:10171000EA1200000000F03F221300005012000007
:101720000000084009C7EE3FFD033ADCF5015B14F9
:10173000E02F3EBE28110000EC1000000000904099
:10174000FE822B654715973C00CC904000346F3FDC
:1017500001FCFFFF0000E03F38100000FFFF0F001A
:10176000432EE63F396CA80C615C20BEEF39FAFECF
:10177000422EE63FDDE9060100F036F9DDE90623F9
:1017800005460E4600F0ECFD3A46434600F0F6FCF6
:101790000F462A46334600901046194600F0BAFB21
:1017A000824602462E4888460B4605217844FFF7BC
:1017B00090FA5246434600F0ADFB2A46334600F00D
:1017C000DDFC80468A463B4628463146009A00F0BA
:1017D000A1FB3B46009A00F007F906910090002219
:1017E0004FF080434046514600F0BAFD0F460C9042
:1017F000424653462846314600F08CFB3B460C9A45
:1018000000F0AEF9069B009A00F0AAFD2A46334686
:1018100000F0A6FD0022134B00F0B0FC0546019835
:101820000E4601EB00510815002810DC2846314611
:10183000019A00F0B1FEFFF738FA042808BFFFF75D
:10184000B5FA28463146019A00F0A6FE05460B4639
:1018500018B02A4658462146BDE8F04D00F05ABB64
:10186000D80E00000000F03F10B5FEF717FD10BDC8
:101870002DE9F04F89B081464846FEF7A6FC824626
:101880004FF0000B002429E0AAF10101081B00F031
:10189000EEFA07463A460B4600201749FFF7F8FADA
:1018A000CDE9000119F80410A1F1300000F0DFFAD1
:1018B0000546DDE9002300F02DFBCDE90401584683
:1018C00000F0D5FACDE90201DDE9042300F08CF83F
:1018D000CDE9060100F09CFA8346641C5445D3DB35
:1018E000002403E0002009F80400641C5445F9DBDF
:1018F000584609B0BDE8F08F000024402DE9F041C2
:1019000006460F4600F046FC041E0D4618BF012097
:10191000284320F00040C0F17F6000F1E040C00F9C
:101920000ED0301C18BF0120384320F00040C0F119
:101930007F6000F1E040C00F04BF0120FEF76DFCA6
:1019400020462946BDE8F08110B586B00446012145
:1019500044F20400FEF7DCFD4FF40070ADF8140013
:1019600003208DF8160018208DF8170005A91C48D3
:10197000FEF7B4FC4FF48060ADF8140004208DF83D
:10198000170005A91648FEF7A9FC25208DF80000D0
:1019900003208DF801008DF8020001208DF803006E
:1019A0006846FEF761FD01940020ADF80800ADF82F
:1019B0000A00ADF80C00ADF810000C20ADF80E00D8
:1019C00001A90848FFF7FEF8012240F22551054819
:1019D000FFF7D2F801210348FFF798F806B010BDD1
:1019E000000801400038014010B591EA030F48BFDC
:1019F00083F0004300F1BC84841A71EB030C05D220
:101A0000121943EB0C03001B61EB0C01DFF824E11E
:101A10004FEA1154A4EB135C1EEA430F18BF9EEA71
:101A2000445F73D023EA0E03DCF1200E21EA045157
:101A300043F4801332D322FA0CFE10EB0E0023FA8B
:101A40000CFE41EB0E01CCF1200E03FA0EFE10EB62
:101A50000E0051F10001B1F5801FCCF1200E32D201
:101A600001EB045112FA0EF2BDE8104058BF704766
:101A7000401C38BF5FEA420218BF7047002814BFFD
:101A800020F0010041F100014FEA410313F5001F6E
:101A900038BF7047A1F1C04100F034BB012A43EBCD
:101AA0000302ACF1200CDCF11F0E32BF4FF0000E30
:101AB00023FA0CF310EB030041EB0451B4EB115F7C
:101AC000D0D0A1EB045101F5801149085FEA300044
:101AD00001EB04510ED350F1000038BF12FA0EFE94
:101AE00008D1BDE81040C9E7401C38BF5FEA420298
:101AF000CAD1C3E7BDE810404FEA410313F5001F08
:101B000038BF7047A1F1C04100F0FCBA9EEA445FC3
:101B100008D011EA5E0FBDE8104004BF01F000419B
:101B200000207047BDE8104070B500F09DFA00BF7E
:101B300064FBBE3E0000E0FF02494FF0000000F0F1
:101B4000F9BC00BF0000F87F491058BFC1F1404107
:101B50005B1058BFC3F140438B42EFF300807047E6
:101B60002DE9C04130B4DFF8A0C23CEA111418BF1F
:101B70003CEA131400F0EC8081EA03051CEA11141E
:101B800044EAD57418BF1CEA131500F0C780A4EB13
:101B900005044FF0004545EAC12145EAC32341EA67
:101BA000505143EA525304F17F74994204F50034D2
:101BB0004FEAC0204FEAC22208BF904200F09C804A
:101BC0004FEA13650FF24016765D4FEA134506FBA8
:101BD00005F7C7F1807706FB07F74FEAD737A7FB72
:101BE00003687642C8F58038A7FB06CE38BFA8F157
:101BF000010807FB08E64FF0000EA6FB028CE6FB8F
:101C000003CEDCF1000CCEF1004E38BFAEF1010E78
:101C1000A6FB0C584FF000074FF00005E6FB0E87BF
:101C2000A1FB08C6A0FB07CE16EB0E0645F100058A
:101C3000E1FB076515F1E04E7EBFA4F580345FEA55
:101C400046066D4116F1800745F100054FEA17275A
:101C50004FEA066647EA0567A6F1DE46B6F1805F01
:101C60004FEA15251FD9384624F0010C05EBC47145
:101C7000BCF1FE6F01EB0C1102D8F0BCBDE8008195
:101C800024425CBF01F5801E9EEAC47F02D4F0BCF2
:101C9000BDE80081244238D4F0BCA1F1C041BDE8C8
:101CA000004100F02FBA4FEAD22242EA43524FEAF3
:101CB000D323A7FB02864FEAD02040EA415007FB1E
:101CC00003661EEA0E0F4FEAD12105FB026658BFDC
:101CD000A6EB0056B6EB00564FEA520E4EEAC37E14
:101CE00018EB0E0E56EB530EBDD518EB02085E41F5
:101CF0007F1C55F10005B6E74FF480154FF0000743
:101D00004FF000064FF00008ADE7F0BC4FF00000C8
:101D100001F1C04101F00041BDE8008111EA0C1F52
:101D20000CEA131500D00CE013EA0C1F00F025801C
:101D30004FF00000F0BC81EA030101F00041BDE872
:101D40000081F0BCBDE8004181EA030100F0DAB98E
:101D5000F0BCBDE8004170B500F086F9097EFC3E9C
:101D600000F007B881EA03014FF0000001F00041E4
:101D7000704781EA030100F0C5B9F0BCBDE800413D
:101D80004FF0000021497047FFFDFBF9F7F5F4F231
:101D9000F0EEEDEBE9E8E6E4E3E1E0DEDDDBDAD806
:101DA000D7D5D4D3D1D0CFCDCCCBCAC8C7C6C5C464
:101DB000C2C1C0BFBEBDBCBBBAB9B8B7B6B5B4B37B
:101DC000B2B1B0AFAEADACABAAA9A8A8A7A6A5A466
:101DD000A3A3A2A1A09F9F9E9D9C9C9B9A9999982A
:101DE0009797969595949393929191908F8F8E8ECD
:101DF0008D8C8C8B8B8A898988888787868585845A
:101E000084838382828181800000FF070000F87F45
:101E10004FEA41034FEA5353A3F58063D3F11E0306
:101E2000C8BFD3F1210C0CDD4FF0004242EAC122C1
:101E300042EA505232FA03FC8CEAE17CACEBE170EE
:101E40007047102BC4BF0020704703F5787CBCF1AD
:101E5000FF3F04D06FF0004282EA2100704770B566
:101E600000F002F94992248000207047F2E710F058
:101E7000004248BF4042B0FA80F310FA03F10AD0A2
:101E8000C3F11D0303F580634FEA415002EB035297
:101E900002EBD12170474FF00000704751EA030C6C
:101EA00017D41CF5801F58BFBCF5801F00F10680B9
:101EB000994218BF704708BF9042704707D711F585
:101EC000801F58BF13F5801F19D49942704789426B
:101ED00070471CF5801F08D5BCF5801FF7D58B42D5
:101EE00018BF704708BF824270474FF4001C1CEBBC
:101EF000410F38BF1CEB430F01D28B42704770B5C6
:101F000000F0B2F8922449004FF000514FF0805396
:101F1000FFF71ABEDFF848C170B51CEA111E1EBFDC
:101F20001CEA13159EEA0C0F95EA0C0F00F06F8067
:101F300081EA030423EA4C134EEAD47E21EA4C11D1
:101F400041F4801143F48013AE44A1FB024CA0FB8A
:101F50000365AEF17F7E361955EB0C05A1FB034CF2
:101F60004CF10003A0FB021C16EB0C06654153F17B
:101F70000003094218BF46F0010613F4007F0BD19D
:101F80004FEA03314FEA0530340341EA155140EA84
:101F900016506FF003020AE04FEAC3214FEAC52052
:101FA000F40241EA555140EA56506FF0020202EB4A
:101FB0002E4201EB025585EACE710AD05FEA440C4D
:101FC00018BF24F0004450F1000041F1000120EA64
:101FD000D47040F2FE7C624500D270BDA84214BFAE
:101FE0004FF080444FF04044002E08BF0024BEF163
:101FF000806FA8BFA1F1C041BDE8704080F282802F
:102000004FF0000001F1C04101F0004170479EEA2D
:102010000C0F0CEA131518BF95EA0C0F06D04FF001
:10202000000081EA030E0EF0004170BD00F01CF8C4
:102030008900013E00F007B800F009B84FEA430CF0
:102040005FEA5C5C08D081EA030100F05BB84FEA0C
:10205000410C5FEA5C5CF6D14FF00000014970472B
:102060000000FF070000F87F0EF1020E2EF0030EB5
:102070005EF8046B364205D4012A43EB030515F5DF
:10208000001F12D8012841EB010C1CF5001F0CD8D1
:102090000ED14FEAD17C15F5001F0CEB4C0C0CF166
:1020A000020C08BF4CEBD37C04E04FF0080C01E0BD
:1020B0004FEAD37C0CEB4C0526FA05F606F0070632
:1020C000B6F1040C06D20EEB860CBDE870404CF065
:1020D000010C6047DFE80CF0090B02024FF00041F1
:1020E0004FF00000A1F5002170BD194610460128EF
:1020F00051EB010418BFD4F5001484BF002001F097
:10210000004170BD0808A0F500114FEA3101704789
:1021100053EA010C17D41CF5801F58BFBCF5801F73
:1021200000F106808B4218BF704708BF824270479B
:1021300007D713F5801F58BF11F5801F19D48B42A4
:1021400070479B4270471CF5801F08D5BCF5801F67
:10215000F7D5994218BF704708BF904270474FF4B7
:10216000001C1CEB430F38BF1CEB410F01D29942FE
:1021700070470FB40CBC03BCFFF7C1BE91EA030F5C
:1021800010B581F000413FF537AC83F0004300F01B
:10219000EFB800002DE9F04101F5801CBCF5001FEF
:1021A000C0F2C3804FEA115C21EA0C510CF1FD0C26
:1021B00041F480115FEA5C0C0CF5C07C01D3400057
:1021C00049413DA4890241EA905187028E0E0A0CD2
:1021D000A45D04FB04F602FB06F6C6F14046A4FB30
:1021E0000662F60D46EA422606FB06F4A4FB01232E
:1021F0005242C3F1404338BF5B1EA6FB024200249B
:10220000E6FB0324D20B42EA4446A6FB0623A1FBCD
:1022100002E2A3FB07E4A4184FF0000252F100020F
:10222000E3FB01426442C2F1404E38BFAEF1010E01
:10223000A6FB04234FF00002E6FB0E32A2FB03468E
:102240004FF00004B61954F10004E2FB0264A1FB54
:1022500006E6A4FB07E816EB08064FF0000858F165
:102260000008E4FB01687642C8F1405838BFA8F185
:102270000108A2FB06E4A3FB08E52D194FF00004BA
:1022800054F10004E2FB0854A1FB05E6A7FB04E8B7
:1022900018EB06084FF0000656F10006E1FB048635
:1022A00018F1200556F10006A809A8F11B08B1098C
:1022B00008F03F08B8F10A0F40EA86601CD901EB2C
:1022C0000C51BDE8F08100BFFCF5EEE8E2DDD8D3AB
:1022D000CFCBC7C3C0BDB9B6B4B1AEACA9A7A5A397
:1022E000A19F9D9B9A9896959392908F8D8C8B89A8
:1022F0008887868584838281A0FB006800FB01F2C9
:1023000008EB4208B8EB872807D5341858EB0104CE
:10231000D5D5401C51F10001D1E7341A78EB010406
:10232000CDD4401E71F10001C9E75FEA4C0C5FEAB1
:102330009C5C0DD105D34FF0000001F00041BDE8D9
:10234000F081BDE8F04170B5FFF78EFE6DDBFFBE9A
:10235000BDE8F0414FF00000004970470000F87FF1
:1023600010B591EA030F48BF83F000433FF544AB3B
:10237000841A71EB030C07D212198CF0004C43EB5A
:102380000C03001B61EB0C01DFF8A4E14FEA1154D0
:10239000A4EB135C1EEA430F18BF9EEA445F00F0F3
:1023A000B08023EA6E03524221EA0451C3EB6E036C
:1023B00038BF5B1EDCF1200E25D322FA0CFE10EB99
:1023C0000E0043FA0CFE41EB0E01CCF1200E03FA95
:1023D0000EFE10EB0E0051F10001CCF1200E29D4BD
:1023E00012FA0EF201EB0451BDE8104058BF7047DD
:1023F000401C1CBFB2F1004F704700280CBF491CA5
:1024000020F00100704712EB020E43EB030218BFED
:102410004FF0010E4EEA4202ACF1200CDCF11E0E30
:1024200054D943FA0CFE10EB0E0051F1FF31CCF100
:102430001E0ED5D50EF1010E12FA0EFE404141EBF3
:10244000010101EB445C5FEA5C5C10D910EBDE70CB
:1024500001EB045138BFBEF1004FBDE8104018BF7A
:10246000704700280CBF491C20F00100704730D293
:102470004FEAD42C11F5001124F400641BD0B1FAFA
:1024800081F20B3AA41AA41ED2F12003914030FA33
:1024900003F31943904001EBCC71002C01EB045184
:1024A000BDE81040A8BF704701F1C0414FF00000E7
:1024B00001F000417047B0FA80F310FA03F100D147
:1024C00010BDE41A173C4805C90AE4E701EB0451C2
:1024D00010BD491001EB0451BDE810404FEA300037
:1024E00002E04FF0000170474A0008BF0042F8D0F8
:1024F000B2F5001F28BF704701F000414FF0000007
:1025000070479EEA445F07D011EA5E0FBDE81040B5
:1025100004BF002100207047BDE8104070B5FFF7F0
:10252000A3FD00BF40DFF63E83F000411046704738
:102530000000E0FF0CF00F03092B08BF082000F09B
:1025400059800A2B0BD0082B18BF704708BF1CF00E
:10255000400F0AD04FF000004FF0000170471CF010
:10256000400F18BF4FF0004070471CF0100F08D00C
:1025700020F0704300F07F4242EAD3014FEA4370FB
:10258000704700F0604021F07F4242EA000201F013
:102590007F4040EA727070474FF0FF0C4CF4E06CE3
:1025A0001CEA11531CBF9CEA030C9445C2BFDA42DB
:1025B00001EB02517047002B0DD0BCF1000F0FD082
:1025C000002A01F00041A4BF41F0E04141F07F61E9
:1025D0004FF00000704701F000414FF000007047DD
:1025E00050EA01334FF09B0C18BF4CF0806C7FF425
:1025F000A3AA70471CF4801F11D01CF4E02F03D055
:102600006FEACC31490070474FF04050EFF3008241
:1026100022F0704242EA000282F3008870474FF0D5
:102620000000704700000000000000000000F03FC4
:10263000000000000000F83F000000000000000063
:102640000000004003B8E23F00000000000000006E
:1026500006D0CF43EBFD4C3E033333333333E33FFC
:10266000FFAB6FDBB66DDB3F4D268F515555D53F28
:1026700001411DA96074D13F65DBC9934A86CD3FF6
:10268000EF4E454A287ECA3F3E5555555555C53FE4
:1026900093BDBE166CC166BF2CDE25AF6A56113FD6
:1026A000F16BD2C541BDBBBED0A4BE726937663ED8
:1026B0000000000000000000D826000800000020F4
:1026C000380000002801000810270008380000200A
:1026D00038070000440100080000000000A24A047E
:1026E00000000000000000000102030406070809C2
:1026F00000000000010203040102030406070809A8
:1027000002040608000000000000000000000000B5
:04000005080000ED02
:00000001FF
